:1000000012C024C023C022C021C020C01FC01EC0F7
:100010001DC01CC01BC01AC019C018C017C016C014
:1000200015C014C013C011241FBECFE5D4E0DEBF3D
:10003000CDBF10E0A0E6B0E0E4E6F1E002C005903C
:100040000D92A23BB107D9F71DD08AC0D9CFFC01D0
:1000500040E050E080E44617570778F420E030E0B5
:100060002E173F0721F000002F5F3F4FF9CF92B3CB
:10007000982792BB4E0F5F1FEECF089500000197A7
:10008000E9F70895CF93DF93CDB7DEB7E6970FB6C4
:10009000F894DEBF0FBECDBF8E9A3FD086E990E0C8
:1000A0004DD082E1E0E6F0E0DE01959601900D9200
:1000B0008A95E1F784E2E2E7F0E0DE011196019033
:1000C0000D928A95E1F700E018E734D0F82E8EE41F
:1000D0002DD0FE01B59680E090E02191F2120DC086
:1000E000880F991FE1E0F0E0EC0FFD1FE80FF91F0A
:1000F000B80180819181ABDFE8CF01968231910513
:1001000061F78BE5F816F9F28DE5F81203C000E00F
:1001100010EFDBCFC801B2DFD8CF10BC8CE089B9BB
:10012000599A88E18AB986E080BD08955D9BFECF2B
:100130008CB908955F9BFECF8CB108950F931F93E8
:10014000CF938C01C0E0F801EC0FF11D8081882372
:1001500019F0ECDFCF5FF7CFCF911F910F9108958A
:04016000F894FFCF41
:10016400617773656466746779686A696B6F6C70CC
:100174003B271304D803A1036D033B030D03E102E2
:10018400B80291026C02490228020902EC01D00172
:10019400B6019E0186012D2D2D2D2D2053657269EA
:1001A400616C204F7267616E202D2D2D2D2D2D0D2C
:0201B4000A003F
:00000001FF
