:1000000012C024C023C022C021C020C01FC01EC0F7
:100010001DC01CC01BC01AC019C018C017C016C014
:1000200015C014C013C011241FBECFE5D4E0DEBF3D
:10003000CDBF10E0A0E6B0E0E8EEF0E002C0059031
:100040000D92A037B107D9F702D04CC0D9CF8FEFAE
:1000500087BB08D080E690E016D011D0C82F25D0FD
:10006000C8BBFBCF10BC8CE089B9599A88E18AB92A
:1000700086E080BD08955D9BFECF8CB908955F9B9F
:10008000FECF8CB108950F931F93CF938C01C0E0E6
:10009000F801EC0FF11D8081882319F0ECDFCF5FB0
:1000A000F7CFCF911F910F9108951F93CF93DF93B7
:1000B0001F92CDB7DEB7898317E0898190E0012ECA
:1000C00002C0959587950A94E2F780FF02C081E30C
:1000D00001C080E3D0DF115080F70F90DF91CF9106
:0800E0001F910895F894FFCF71
:1000E80048656C6C6F20576F726C64210D0A0000B4
:00000001FF
